:100000000C9462000C948A000C948A000C94BD0E2F
:100010000C94BD0E0C94BD0E0C948A000C948A00B6
:100020000C948A000C948A000C948A000C94590E4B
:100030000C948A000C948A000C948A000C948A0018
:100040000C94B70D0C948A000C94270E0C94010E9E
:100050000C948A000C948A000C948A000C948A00F8
:100060000C94C70E0C948A000000000024002700A6
:100070002A0000000000250028002B0000000000DE
:1000800023002600290004040404040404040202DA
:100090000202020203030303030301020408102007
:1000A0004080010204081020010204081020000012
:1000B0000008000201000003040700000000000027
:1000C0000000141011241FBECFEFD8E0DEBFCDBF5B
:1000D00011E0A0E0B1E0E0E2FEE202C005900D9286
:1000E000A23EB107D9F724E0A2EEB1E001C01D9213
:1000F000AB36B207E1F710E0C2E6D0E004C02197CA
:10010000FE010E94FB16C136D107C9F70E943711C4
:100110000C940E170C940000089508950895089506
:10012000089508950895089508958CBD9DBD08957E
:10013000833081F028F4813099F08230A9F008955D
:100140008730A9F08830C9F08430B1F48091800004
:100150008F7D03C0809180008F7780938000089509
:1001600084B58F7784BD089584B58F7DFBCF809152
:10017000B0008F778093B00008958091B0008F7D9C
:10018000F9CFCF93DF93282F30E0F901E255FF4FED
:100190008491F901E656FF4FD491F901EA57FF4FD8
:1001A000C491CC23A1F081110E949800EC2FF0E0C3
:1001B000EE0FFF1FE458FF4FA591B491EC91ED2392
:1001C00081E090E009F480E0DF91CF91089580E034
:1001D00090E0FACF1F93CF93DF93282F30E0F901FF
:1001E000E255FF4F8491F901E656FF4FD491F90192
:1001F000EA57FF4FC491CC23A9F0162F81110E941A
:100200009800EC2FF0E0EE0FFF1FEE58FF4FA59186
:10021000B4918FB7F894EC91111108C0D095DE23FA
:10022000DC938FBFDF91CF911F910895DE2BF8CF24
:10023000CF93DF9390E0FC01E656FF4F24918A575D
:100240009F4FFC0184918823C9F090E0880F991F8B
:10025000FC01E859FF4FA591B491FC01EE58FF4F06
:10026000C591D49161110DC09FB7F8948C912095E0
:1002700082238C938881282328839FBFDF91CF918D
:100280000895623051F49FB7F8943C91822F809585
:1002900083238C93E8812E2BEFCF8FB7F894EC91CA
:1002A0002E2B2C938FBFEACF3FB7F8948091CD02CD
:1002B0009091CE02A091CF02B091D00226B5A89B1A
:1002C00005C02F3F19F00196A11DB11D3FBFBA2FE8
:1002D000A92F982F8827BC01CD01620F711D811DA8
:1002E000911D42E0660F771F881F991F4A95D1F72D
:1002F00008958F929F92AF92BF92CF92DF92EF922A
:10030000FF924B015C010E9454016B017C010E9431
:1003100054016C197D098E099F09683E734081055F
:100320009105A8F321E0821A9108A108B10888EE8E
:10033000C80E83E0D81EE11CF11C81149104A104B5
:10034000B10429F7FF90EF90DF90CF90BF90AF906E
:100350009F908F90089508950895AF92BF92CF9285
:10036000DF92EF92FF920F931F93CF93DF936C0175
:100370007B018B01040F151FEB015E01AE18BF0856
:10038000C017D10759F06991D601ED91FC91019008
:10039000F081E02DC6010995892B79F7C501DF9120
:1003A000CF911F910F91FF90EF90DF90CF90BF9072
:1003B000AF900895FC01538D448D252F30E0842F9C
:1003C00090E0821B930B541710F0CF96089501977D
:1003D0000895FC01918D828D981761F0A28DAE0F6A
:1003E000BF2FB11D5D968C91928D9F5F9F73928FF1
:1003F00090E008958FEF9FEF0895FC01918D828D1D
:10040000981731F0828DE80FF11D858D90E00895E9
:100410008FEF9FEF0895FC01918D228D892F90E041
:10042000805C9F4F821B91098F739927089586EBFB
:1004300093E00E940B0221E0892B09F420E0822F37
:10044000089580E090E0892B29F00E941702811125
:100450000C9400000895FC01A48DA80FB92FB11DC4
:10046000A35ABF4F2C91848D90E001968F739927EA
:10047000848FA689B7892C93A089B1898C918370C8
:1004800080648C93938D848D981306C00288F389C1
:10049000E02D80818F7D80830895EF92FF920F93EE
:1004A0001F93CF93DF93EC0181E0888F9B8D8C8D20
:1004B00098131AC0E889F989808185FF15C09FB714
:1004C000F894EE89FF896083E889F98980818370D7
:1004D000806480839FBF81E090E0DF91CF911F9186
:1004E0000F91FF90EF900895F62E0B8D10E00F5FA7
:1004F0001F4F0F731127E02E8C8D8E110CC00FB67D
:1005000007FCFACFE889F989808185FFF5CFCE0114
:100510000E942B02F1CFEB8DEC0FFD2FF11DE35A62
:10052000FF4FF0829FB7F8940B8FEA89FB89808197
:100530008062CFCFCF93DF93EC01888D8823B9F011
:10054000AA89BB89E889F9898C9185FD03C08081DE
:1005500086FD0DC00FB607FCF7CF8C9185FFF2CF5B
:10056000808185FFEDCFCE010E942B02E9CFDF9184
:10057000CF910895CF93DF93009729F1EC01C05CF0
:10058000DF4F888199810097F1F0DC01ED91FC91BA
:100590000190F081E02D69EF099588819981DC0156
:1005A000ED91FC910190F081E02D62E00995888148
:1005B0009981DC01ED91FC910190F081E02D65E0E5
:1005C000DF91CF910994DF91CF910895CF92DF927F
:1005D000EF92FF920F931F93CF93DF93009709F44D
:1005E00073C0FC01E058FF4FC080CC2009F46CC000
:1005F000EC01C05CDF4FA881B981109709F464C099
:10060000FC01EF57FF4FE080F180F701118100817D
:10061000ED91FC9111970190F081E02D60EFCD01FB
:10062000099588819981DC01ED91FC910190F0811F
:10063000E02D69E7099588819981DC01ED91FC91B4
:100640000190F081E02D602F099588819981DC016E
:10065000ED91FC910190F081E02D612F09958701CA
:10066000EC2DE250FF0B6F0188819981DC01ED9147
:10067000FC910190F081E02D98012E193F092C1575
:100680003D05C0F4D80112966C916F770995888169
:100690009981F801628170E0660F672F661F770B02
:1006A000DC01ED91FC910190F081E02D09950F5F47
:1006B0001F4FDACF67EFDF91CF911F910F91FF901E
:1006C000EF90DF90CF900994DF91CF911F910F9120
:1006D000FF90EF90DF90CF900895BC016E5F7F4F49
:1006E000DC01ED91FC910190F081E02D40E0099555
:1006F00091E0811190E0892F089508958EBD00004A
:100700000DB407FEFDCF8EB50895DF92EF92FF92F4
:100710000F931F93CF93DF937C01062FD42E152FB9
:1007200080E590E00E94950060E0F70186850E94D8
:10073000EA0082E10E947E03CD2DD12F0C0F1D2FE8
:10074000111DC017D10721F089910E947E03F9CFB6
:1007500061E0F7018685DF91CF911F910F91FF90A6
:10076000EF90DF900C94EA001F93CF93DF93EC019E
:10077000162F80E590E00E94950060E08E850E9433
:10078000EA00812F80680E947E0380E00E947E0341
:10079000182F61E08E850E94EA00812FDF91CF91B2
:1007A0001F9108950F931F93CF93DF93EC01062FB2
:1007B000142F80E590E00E94950060E08E850E94F5
:1007C000EA00802F0E947E03812F0E947E0361E059
:1007D0008E85DF91CF911F910F910C94EA00CF92FB
:1007E000DF92EF92FF920F931F93CF93DF93EC0171
:1007F0006B01F42E890140E062E00E94D20344E0E4
:100800006AE0CE010E94D20340E864E1CE010E947A
:10081000D203A6016F2DCE010E94850343E062E062
:10082000CE010E94D2038FB7F894C090D102D0902D
:10083000D202E090D302F090D4028FBF89E5C80EB7
:10084000D11CE11CF11C6AE0CE010E94B40382FFBE
:100850001BC040E062E0CE010E94D20364E4CE01FE
:100860000E94B403F801808362E4CE010E94B403C5
:10087000F801818380E0DF91CF911F910F91FF906C
:10088000EF90DF90CF9008952FB7F8948091D10228
:100890009091D202A091D302B091D4022FBF8C15B7
:1008A0009D05AE05BF0578F283E0E5CF2F923F921C
:1008B0004F925F926F927F928F929F92AF92CF9260
:1008C000DF92EF92FF920F931F93CF93DF9300D0AD
:1008D000CDB7DEB74C012B01D42E390180E0E114F5
:1008E000F10411F0F70180813C2C329490EF392211
:1008F000380E40E062E0C4010E94D2034FE768E096
:10090000C4010E94D20340E864E1C4010E94D20302
:10091000A2016D2DC4010E948503432D6AE1C4012B
:100920000E94D2034CE062E0C4010E94D2036AE15B
:10093000C4010E94B403482F40686AE1C4010E94C8
:10094000D2038FB7F8942090D1023090D202409019
:10095000D3025090D4028FBFF4E22F0E311C411C01
:10096000511C68E0C4010E94B403982F907309F0F1
:10097000C0C080FF15C083E00F900F90DF91CF9132
:100980001F910F91FF90EF90DF90CF90AF909F90CD
:100990008F907F906F905F904F903F902F90089531
:1009A0002FB7F8948091D1029091D202A091D302F6
:1009B000B091D4022FBF82159305A405B50588F226
:1009C000DACF6114710409F469C00115110509F445
:1009D00065C064E1C4010E94B403382EF80180812F
:1009E000831508F480C030823320E1F180E590E087
:1009F0000E94950060E0F40186850E94EA003A9426
:100A000082E90E947E03CC20B1F08FEF90E09C0140
:100A100002C0220F331FCA94E2F7690182E90E94E3
:100A20007E039C2D9095F301208192238C21982B9D
:100A30009083CC24C39423014C0C511CC31440F468
:100A400082E90E947E03F20181932F01C394F6CFC5
:100A500080E00E947E03F201808361E0F4018685DC
:100A60000E94EA0068E1C4010E94B4038770E114A7
:100A7000F10411F0F701808323FC37C06114710485
:100A8000B1F10115110599F1AA2089F1F801408110
:100A9000413031F4843029F58FEF6ECF80E0ECCF18
:100AA0004230F8F081111DC042509E012F5F3F4F30
:100AB000B301C4010E94EF0381115ECFF801908160
:100AC000690E711CF301329720819981291309C0A5
:100AD000F1E06F1A7108F30120819A81291709F456
:100AE0004BCF87E049CF84E047CF82E045CF80E01D
:100AF00043CF6CE0C4010E94B403282E837109F433
:100B000060CF81E039CF8F929F92AF92CF92EF92D8
:100B1000FF920F931F93CF93DF9300D000D01F92CB
:100B2000CDB7DEB74C0182E08D8340E064E2C401C2
:100B30000E94D20340E066E2C4010E94D20346E272
:100B400068E4C4010E94D20386E28B838D818230E7
:100B5000D8F16CE1C4010E94B403482F4F776CE1D7
:100B6000C4010E94D20387E08C83A12CC12CCE014A
:100B700004967C018E010B5F1F4F9E012F5F3F4F3C
:100B800041E0BE016D5F7F4FC4010E945604982F63
:100B9000811117C08D818230B9F48C81811114C00C
:100BA00081E00F900F900F900F900F90DF91CF91F9
:100BB0001F910F91FF90EF90CF90AF909F908F90EB
:100BC000089581E0923069F380E0EBCF2F923F925D
:100BD0004F925F926F927F928F929F92AF92BF924D
:100BE000CF92DF92EF92FF920F931F93CF93DF93F9
:100BF000CDB7DEB72D970FB6F894DEBF0FBECDBFD1
:100C000016E0413508F04AC1342E3B014C016CE13D
:100C10000E94B403482F4F776CE1C4010E94D203B5
:100C200083E98983332029F081E0F30190819530B5
:100C300008F480E022242394B12C9B2D990F990F66
:100C4000990FD32CD91AD7FCD12C32E0882319F074
:100C500098E89B8333E021E09D2D977009F420E014
:100C60009D2D959595959595290FC9F094E0811145
:100C700093E0291708F4922FEB2DF0E03196E60D62
:100C8000F71D232F4191A1E0B0E0AC0FBD1FA20FD3
:100C9000B11D4C932F5F422F431B491798F38823B4
:100CA00011F0F8E0DF0E8FE18D150CF082C090E7B7
:100CB0009A838B819C8189279D8189279E818927A1
:100CC0008F839E01285F3F4F47E0BE016F5F7F4FDC
:100CD000C4010E94EF03182F8111E0C01A86E3E0DF
:100CE000EB87DC86CE0107962C0199E09D87CA84AC
:100CF0004C2D4295407F4C0D6AE1C4010E94D20305
:100D0000A12CCE010A967C018E01055F1F4F920136
:100D10004D85BE016F5F7F4FC4010E945604182F9E
:100D2000823009F065C06CE1C4010E94B40385FD06
:100D3000B5C08F7109F480E2282F30E04D2DDD0C15
:100D4000550B421753070CF09DC0D82EE82FE595A0
:100D5000E595E595EF5F982F977081E009F480E0C5
:100D6000E80F81E090E08C0F9D1F8E0F911DFC011C
:100D7000215031092770332781E090E002C0880FAD
:100D8000991F2A95E2F79C018081822B80838BCF6B
:100D900085E98983332031F081E0F3019081983037
:100DA00008F04BCF80E049CF87E9898326E0B22E57
:100DB000F9CF9D2D97709A878D2D85958595859571
:100DC0008E5F282F2295207F290F2A8321E0911101
:100DD00001C020E0280F2D8744244394512C4C0E51
:100DE0005D1E480E511CE9E0E81BEB87DC867FCFD7
:100DF000811154C080E2D82E9C8590320CF457CFDC
:100E00008B81883809F040C083E093E0EB2DF0E05F
:100E10003196E60DF71D980FA1E0B0E0AC0FBD1FB5
:100E2000A80FB11D2C9121938F5F8913F5CFBB843F
:100E3000E3E0BE124DC08A8581114AC09E012D5F3C
:100E40003F4F41E0B201C4010E94EF03182F81110E
:100E500025C09B81F201818198133CC09C818281D5
:100E6000981338C0808182FF12C02394F2E02F16BD
:100E700009F48ECF83E0281609F496CF91E0291665
:100E800009F4CECE15E00AC082E094E0BFCFF301B2
:100E90008387822D880F820D8F5F8083812F2D960F
:100EA0000FB6F894DEBF0FBECDBFDF91CF911F917B
:100EB0000F91FF90EF90DF90CF90BF90AF909F90F9
:100EC0008F907F906F905F904F903F902F900895FC
:100ED00011E0E4CF17E0E2CFCF93DF93EC01DB0129
:100EE0004AE0E881F981908190539A30C0F48D9165
:100EF0009C911197489F9001499F300D11241196A4
:100F00003C932E93819120533109280F311D87FD89
:100F10003A9511963C932E93F983E883E2CFDF91C3
:100F2000CF910895DC01ED91FC9111979F012E5F07
:100F30003F4F2D933C93808191810895CF92DF9212
:100F4000EF92FF920F931F93CF93DF936C017B017E
:100F500010E000E0D0E0C0E0D6011296ED91FC91E7
:100F6000E00FF11F6491662369F0D701ED91FC91C8
:100F70000190F081E02DC7010995C80FD91F0F5FBF
:100F80001F4FEACFCE01DF91CF911F910F91FF90BC
:100F9000EF90DF90CF900895DC011496ED91FC91D5
:100FA000159716968D919C9117979C012F5F3F4F37
:100FB00017963C932E931697E80FF91F608381E0F4
:100FC00090E008950895E091C2028091C102E8176F
:100FD00030F4F0E0EA5DFD4F808190E008958FEFFE
:100FE0009FEF08959091C2028091C1022FEF3FEFD1
:100FF000981748F4E92FF0E0EA5DFD4F208130E0DA
:101000009F5F9093C202C90108958091C10290919F
:10101000C202891B990B089520910302260F3327E2
:10102000331F21323105ECF420919302FC0190E052
:1010300080E0243069F082E00895A09103022191BC
:10104000AC014D515E4FA40FB52FB11D2C930196ED
:10105000861798F380910302680F6093030280E083
:10106000089581E00895CF92DF92EF92FF920F935F
:101070001F93CF93DF937C01CB018A0120919902CA
:10108000222389F0EB016B01C40ED51ECC15DD05C2
:1010900069F06991D701ED91FC910190F081E02D0B
:1010A000C7010995F3CF642F0E940C08C801DF9196
:1010B000CF911F910F91FF90EF90DF90CF90089507
:1010C000CF93DF931F92CDB7DEB76983209199024A
:1010D0002223F9F02091BF02203258F021E030E0C5
:1010E000FC013383228390E080E00F90DF91CF9169
:1010F00008958091C002E82FF0E0E656FD4F9981F7
:1011000090838F5F8093C0028093BF0281E090E064
:10111000ECCF61E0CE0101960E940C08F7CF10924F
:10112000930281E08093920210926D0261E082E16D
:101130000E94EA0061E083E10E94EA00E9EBF0E04E
:1011400080818E7F808380818D7F808388E48093FF
:10115000B80085E48093BC000895CF93DF9391E0BD
:101160009093E2018823B9F0C091B800D091BA0001
:101170008091BC008A7B8093BC0060E082E10E9489
:10118000EA0060E083E10E94EA000E948F08D093A9
:10119000BA00C093B800DF91CF910895CF92DF924B
:1011A000EF92FF920F931F93CF93DF93FC01C481C3
:1011B00021E020939902C093BA021092C0021092CB
:1011C000BF028385682B85E993E00E946008D09177
:1011D000BF02D13208F092C00E9454016B017C0121
:1011E00080919302811165C082E08093930281E037
:1011F000809392028FEF8093910210929002D0938D
:101200008F02AAE9B2E0EFE6F2E080E0D81385C0F1
:1012100010926E0280916E02CC0FC82BC0936E02AA
:1012200080916D02813009F07CC010926D020E94A5
:1012300054016B017C0180916E028093BB00809110
:10124000950290919602A0919702B0919802892BF5
:101250008A2B8B2B99F00E945401009195021091DA
:10126000960220919702309198026C197D098E099F
:101270009F090617170728073907E0F18091BC007E
:1012800083FDD9CF85EC8093BC000E9454016B0193
:101290007C0180919302823009F445C080919102D3
:1012A0008F3F61F180919102803241F180919102F2
:1012B00025C08091950290919602A0919702B091DD
:1012C0009802892B8A2B8B2B09F48ACF0E94540118
:1012D0000091950210919602209197023091980208
:1012E0006C197D098E099F0906171707280739070A
:1012F00008F076CF809194020E94AD081092C0024F
:101300001092BF0210929902DF91CF911F910F911D
:10131000FF90EF90DF90CF9008959D9191938F5F14
:1013200075CF85EEB0CF8091950290919602A091F5
:101330009702B0919802892B8A2B8B2B09F4A9CFA5
:101340000E945401009195021091960220919702FB
:10135000309198026C197D098E099F0906171707AD
:101360002807390708F095CFC5CFDC0114968D9179
:101370009C91DC01ED91FC910190F081E02D0994AC
:10138000089590E080E008951F93CF93DF93D0E01D
:10139000C0E010E08091B3030E94C100813091054C
:1013A00031F40C2E01C0880F0A94EAF7182B61E083
:1013B0008091B2030E94EA0060E08091B2030E9433
:1013C000EA002196C830D10529F7812FDF91CF910E
:1013D0001F9108950F931F93CF938C01C62F0E94E6
:1013E000CE086C2F6460C8010E94CE086C2F6B7F02
:1013F000C8010E94CE0883EC90E00197F1F7CF91ED
:101400001F910F9108950F931F93CF93DF938C013A
:10141000D62FC42F607F642B0E94EA0980E1D89FF9
:10142000B00111246C2BC801DF91CF911F910F9156
:101430000C94EA09CF93DF93CDB7DEB728970FB6A8
:10144000F894DEBF0FBECDBF98E0E0E0F1E0DE0132
:10145000119601900D929A95E1F790916704981773
:1014600008F48FEF90E0880F991F21E030E02C0FF7
:101470003D1F820F931FFC016081606840E08FE593
:1014800094E028960FB6F894DEBF0FBECDBFDF9173
:10149000CF910C94030A41E00E94030A81E090E09E
:1014A0000895FB0101900020E9F73197AF01461B39
:1014B000570BDC01ED91FC910280F381E02D099442
:1014C0008F929F92AF92BF92EF92FF920F931F93D2
:1014D000CF93DF93CDB7DEB7A1970FB6F894DEBFF9
:1014E0000FBECDBF7C01FA01CB0119A2223008F456
:1014F0002AE08E010F5D1F4F822E912CB12CA12C62
:10150000BF01A50194010E949D14F901CA016A302E
:101510000CF5605DD8016E938D01232B242B252BB8
:1015200079F790E080E0109721F0BD01C7010E949B
:10153000510AA1960FB6F894DEBF0FBECDBFDF9162
:10154000CF911F910F91FF90EF90BF90AF909F9020
:101550008F900895695CDECFCF92DF92EF92FF9279
:101560000F931F93CF93DF9377FF1DC06A017B0119
:10157000EC016DE20E94CC078C0144275527BA018B
:101580004C195D096E097F092AE0CE010E94600AAC
:10159000800F911FDF91CF911F910F91FF90EF90DE
:1015A000DF90CF9008952AE0DF91CF911F910F91A6
:1015B000FF90EF90DF90CF900C94600A2F923F92B3
:1015C0004F925F926F927F928F929F92AF92BF9253
:1015D000CF92DF92EF92FF920F931F93CF93DF93FF
:1015E000CDB7DEB7E2970FB6F894DEBF0FBECDBF22
:1015F0002996EEACFFAC2997CE01855B9F4F9AAB45
:1016000089AB2B968EAD9FAD2B9798AB8FA710E033
:10161000EFA5F8A96081662309F433C2653229F089
:10162000C7010E94B5091F5F0BC0CF01019698AB9F
:101630008FA71EA61DA68181811108C0F8ABEFA758
:101640008FA598A9019698AB8FA7E2CF853211F4A8
:1016500065E2E6CF00E08D3221F43296F8ABEFA7D9
:1016600001E0EFA5F8A98081803321F43196F8AB31
:10167000EFA70260EFA5F8A980818A3209F062C065
:101680003196F8ABEFA7CE01C1960E9492079EA7B4
:101690008DA790E3D92E01FD02C080E2D82E21E073
:1016A00030E02C0F3D1F38A72FA31AA619A61EA2A3
:1016B0001DA286E291E09CA38BA31CA61BA6EFA50E
:1016C000F8A980818E3251F43196F8ABEFA7BE01B4
:1016D000655D7F4FCE018F960E946C07EFA5F8A93C
:1016E0008081B12C8C3629F43196F8ABEFA7BB245E
:1016F000B394EFA5F8A98081833761F5CE01C19637
:101700000E949207FC0101900020E9F73197E81B45
:10171000F90B98A78FA3FAA7E9A7A9A4BAA48DA546
:101720009EA5A816B90608F484C11EA61DA600FD34
:1017300089C10DA5015008F481C16D2DC7010E941A
:10174000B509F8CFBE01635D7F4FCE018F960E9431
:101750006C079FCF803781F4CE01C1960E9492071B
:1017600020E231E03A8F298F9C8F8B8FB701CE0119
:1017700049960E949E0764CF8237D1F4CDA4DEA49F
:10178000CE01C1960E9492079E8F8D8FD8A2CF8ED8
:101790001C8E1B8E8CE091E09A8F898F2AE131E0BC
:1017A0003AA329A3B701CE0149960E94E60F48CF7C
:1017B0008E36F1F4CE01C1960E9492076C018DA580
:1017C0009EA59C01215031093EA72DA7892B09F424
:1017D00037CFBB2041F0C114D10489F3B601C70152
:1017E0000E94510AECCF6C2DC7010E94B509E7CFCA
:1017F000843611F08936D1F4BB2079F0E9A9FAA931
:10180000CF0104969AAB89AB40815181628173818B
:10181000CE0183960E94AC0A80CFCE01C1960E9471
:101820009207AC01990F660B770BF2CF8537D1F495
:10183000E9A9FAA9CF01BB2069F004969AAB89AB5C
:1018400040815181628173812AE0CE0183960E949A
:10185000600A63CF02969AAB89AB4081518170E0F8
:1018600060E0F2CF863609F0B9C07BA4E9A9FAA9F5
:10187000CF0104969AAB89AB80809180A280B3801F
:10188000A5019401C501B4010E94F61664E771E058
:10189000811126C014012501E89457F82FEF3FEF7E
:1018A0004FE75FE7C201B1010E94F61681110CC03B
:1018B0002FEF3FEF4FE75FE7C201B1010E942C1508
:1018C00068E771E0181664F02FEF3FEF4FE75FE431
:1018D000C501B4010E94841618163CF46CE771E04F
:1018E000CE0183960E94510A18CF2FEF3FEF4FE7AA
:1018F0005FECC501B4010E942C1587FDEFCF20E0FD
:1019000030E0A901C501B4010E942C1587FF09C070
:101910006DE2CE0183960E94CC07B7FAB094B7F877
:10192000B094C72C612C60E070E080E09FE3671406
:1019300040F420E030E040E251E40E94311563942D
:10194000F6CFA50194010E94C0144B015C010E94D6
:10195000A3151B012C012AE0BC01A101CE01839635
:101960000E94600A772009F4D8CEC201B1010E941A
:10197000D2159B01AC01C501B4010E94BF144B01FB
:101980005C016EE2CE0183960E94CC07CA943FEFC1
:10199000C31609F4C2CE20E030E040E251E4C501B4
:1019A000B4010E9489162B013C010E94A3154B0132
:1019B000B12CA12C2AE0B501A401CE0183960E948E
:1019C000600AC501B4010E94D2159B01AC01C3019C
:1019D000B2010E94BF144B015C01D8CF8837B1F42B
:1019E000E9A9FAA9CF01BB2049F004969AAB89ABCB
:1019F000408151816281738120E127CF02969AABA9
:101A000089AB4081518170E060E0F6CF833609F008
:101A100084CECE01C1960E949207898381E090E036
:101A20008C0F9D1F98A78FA321E030E03AA729A72C
:101A300074CE8A199B099EA78DA779CE8DA5180F04
:101A40001EA61DA6EFA1F8A589A59AA59C012F5F4A
:101A50003F4F3AA729A7E80FF91F10826FA178A579
:101A6000A501C7010E94AD01C82E0DA5015028F0A7
:101A70006D2DC7010E94B509F9CF8DA5180F1C0D5A
:101A8000DFCD812F90E0E2960FB6F894DEBF0FBE57
:101A9000CDBFDF91CF911F910F91FF90EF90DF901D
:101AA000CF90BF90AF909F908F907F906F905F90FE
:101AB0004F903F902F900895FF920F931F93CF93D5
:101AC000DF93EC01F62E0C811D818E819F81080F22
:101AD000191FC8010E9487148F1521F06F2DC801AE
:101AE0000E948F148E819F8101969F838E8381E057
:101AF00090E0DF91CF911F910F91FF90089585EDB8
:101B00008093BC008091950290919602A0919702DB
:101B1000B09198020796A11DB11D23E0B695A79537
:101B2000979587952A95D1F72091BC0024FD03C095
:101B300010929302089540919502509196026091FF
:101B4000970270919802452B462B472B69F300971B
:101B5000A105B10541F02AE22A95F1F700C00197ED
:101B6000A109B109E1CF809194020C94AD081F92B4
:101B70000F920FB60F9211242F933F938F939F9341
:101B8000AF93BF938091D1029091D202A091D302E2
:101B9000B091D4023091CC0223E0230F2D3758F5B9
:101BA0000196A11DB11D2093CC028093D102909388
:101BB000D202A093D302B093D4028091CD0290912F
:101BC000CE02A091CF02B091D0020196A11DB11D0D
:101BD0008093CD029093CE02A093CF02B093D00217
:101BE000BF91AF919F918F913F912F910F900FBE19
:101BF0000F901F90189526E8230F0296A11DB11D86
:101C0000D2CF1F920F920FB60F9211242F933F93B2
:101C10004F935F936F937F938F939F93AF93BF93F4
:101C2000EF93FF9386EB93E00E942B02FF91EF91DD
:101C3000BF91AF919F918F917F916F915F914F91E4
:101C40003F912F910F900FBE0F901F9018951F92EC
:101C50000F920FB60F9211242F938F939F93EF93B0
:101C6000FF93E091C603F091C7038081E091CC031C
:101C7000F091CD0382FD1BC090818091CF038F5FD7
:101C80008F732091D003821741F0E091CF03F0E0F1
:101C9000EA54FC4F958F8093CF03FF91EF919F9172
:101CA0008F912F910F900FBE0F901F9018958081EC
:101CB000F4CF1F920F920FB60F9211242F933F93E0
:101CC0008F939F93EF93FF9380916C0287FF1FC0C8
:101CD000109285001092840080916C028F5F809337
:101CE0006C0280916C0287FF04C080916C028C3082
:101CF000ACF08091840090918500049680349C49DA
:101D000090F1809184009091850004962EC080917E
:101D10006C0287FFE1CF80916C02DECF20918400BE
:101D200030918500E0916C028E2FEE0F990BFC0133
:101D3000EE0FFF1FE80FF91FE85BFD4F81819281D5
:101D4000820F931F909389008093880080916C028A
:101D5000FF91EF919F918F913F912F910F900FBE27
:101D60000F901F90189580E49CE9909389008093D0
:101D700088008FEF80936C02EBCF1F920F920FB60B
:101D80000F9211240F900FBE0F901F9018951F9265
:101D90000F920FB60F9211242F933F934F935F939F
:101DA0006F937F938F939F93AF93BF93EF93FF9323
:101DB0008091B900887F803609F44AC0F0F58832F6
:101DC00009F4A7C018F5803109F49BC0B8F4882342
:101DD00009F4F9C0883009F494C0FF91EF91BF91E4
:101DE000AF919F918F917F916F915F914F913F91B3
:101DF0002F910F900FBE0F901F901895883109F406
:101E000088C0803251F78093910214C0803409F465
:101E10009DC040F48033B9F38833F9F68093910282
:101E200085ECB0C0803509F485C0883509F496C0CA
:101E3000883499F60E947F0DD0CF883909F48CC080
:101E400038F5883729F050F4883611F0803729F6B4
:101E500083E0809393021092250257C0883809F4DA
:101E60007BC0803919F0803809F0B7CF8091250206
:101E7000803208F071C0E091250281E08E0F8093DE
:101E800025028091BB00F0E0EB5FFD4F80833DC0F9
:101E9000803B39F0E0F4803A09F479C0883A09F0DF
:101EA0009CCF84E08093930210920402109203026C
:101EB000E091BD02F091BE0209958091030281116B
:101EC0000FC081E0809303021092E30109C0803CBF
:101ED00009F4A6CF883C09F4A3CF883B09F07DCF55
:101EE000E091040281E08E0F80930402F0E0ED5156
:101EF000FE4F80818093BB00909104028091030289
:101F000029C080916E028093BB0085EC8093BC0059
:101F100064CF9091900280918F02981758F5E091CC
:101F2000900281E08E0F80939002F0E0E159FD4F26
:101F30008081E9CFE091900281E08E0F8093900242
:101F40008091BB00F0E0E159FD4F808390919002B9
:101F500080918F029817C8F285E8D8CFE09190025F
:101F600081E08E0F809390028091BB00F0E0E159F8
:101F7000FD4F80838091920281115CCF81E080933C
:101F80006D0284EA8093BC001092930226CF85EC08
:101F90008093BC001092930280912502803230F42D
:101FA000E0912502F0E0EB5FFD4F10826091250289
:101FB00070E0E091BB02F091BC0285E092E00995EF
:101FC000109225020ACF1092910234CFEF92FF9225
:101FD0000F931F93CF93DF937C018B01D0E0C0E080
:101FE000D70116968D919C911797C817D90790F431
:101FF00014968D919C918C0F9D1F0E948714D8017F
:10200000ED91FC910190F081E02D682FC8010995B8
:102010002196E6CFDF91CF911F910F91FF90EF9026
:10202000089508970C94E60FCF93DF93E6EBF3E067
:102030001382128248EE53E060E070E044835583DF
:102040006683778382E391E09183808385EC90E0DF
:102050009587848784EC90E09787868780EC90E072
:10206000918B808B81EC90E0938B828B82EC90E063
:10207000958B848B86EC90E0978B868B118E128EDD
:10208000138E148E85ED92E01092160310921503B4
:10209000909319038093180320E430E030931B03DE
:1020A00020931A0310921C0310921D0310921F0319
:1020B00010921E031092200310922203109221030B
:1020C00010922403109223031092260310922503EA
:1020D000109228031092270310922A0310922903CA
:1020E00010922C0310922B0310922E0310922D03AA
:1020F000109234031092330310923603109235037A
:10210000109238031092370310923A031092390359
:102110001092480310924703109217031092550330
:102120001092570310925603109294032CE830E05B
:1021300030933C0320933B032DE830E030933E0383
:1021400020933D032EE830E03093400320933F037B
:102150002FE830E0309342032093410320E930E040
:10216000309344032093430321E930E03093460346
:102170002093450322E930E030934A03209349033A
:1021800023E930E030934C0320934B0326EE32E0FA
:1021900030934E0320934D039093300380932F038D
:1021A0002AEB32E03093500320934F039093320395
:1021B0008093310384E990E090935203809351031C
:1021C000A5E9B3E013961C921E92129714964D93B4
:1021D0005D936D937C93179784E491E08D939C932A
:1021E000AFE5B4E013961C921E92129780E691E040
:1021F00011969C938E9387E214968C93149780E1AA
:1022000019968C93199782E01A968C931A971B96BD
:102210001C921B97C9E5D4E01B821A828CE691E0E0
:1022200099838883BD83AC83A3E5B4E013961C92A5
:102230001E92129711969C938E931596FC93EE9393
:102240001497E1EBF3E085E0808397E0918396E0DB
:10225000928314821382E1EAF3E026E531E03183D0
:1022600020839AE096878787DF91CF910895CF9357
:10227000DF9300D000D0CDB7DEB7789484B582600C
:1022800084BD84B5816084BD85B5826085BD85B51A
:10229000816085BD80916E00816080936E00109298
:1022A0008100809181008260809381008091810013
:1022B00081608093810080918000816080938000A4
:1022C0008091B10084608093B1008091B000816002
:1022D0008093B00080917A00846080937A0080912E
:1022E0007A00826080937A0080917A008160809386
:1022F0007A0080917A00806880937A001092C10001
:10230000E091C603F091C70382E08083E091C203AD
:10231000F091C3031082E091C403F091C50380E102
:1023200080831092CE03E091CA03F091CB0386E044
:102330008083E091C803F091C9038081806180832C
:10234000E091C803F091C903808188608083E091A7
:10235000C803F091C903808180688083E091C8033D
:10236000F091C90380818F7D80831092C202109208
:10237000C1021092C0021092BF020E948F088BEA25
:1023800091E09093BE028093BD028CEA91E090931D
:10239000BC028093BB021092640480916904823075
:1023A00018F098E0909364048093670462E370E00F
:1023B00080E090E00E94790160916A048FE594E0EA
:1023C0000E94CE0868EE73E080E090E00E94790100
:1023D00060E38FE594E00E94EA090BE416E4C8018B
:1023E0000197F1F760E38FE594E00E94EA09C801E4
:1023F0000197F1F760E38FE594E00E94EA0983E535
:1024000092E00197F1F760E28FE594E00E94EA091B
:1024100060916404606240E08FE594E00E94030AEA
:1024200084E08093650440E06CE08FE594E00E94D6
:10243000030A40E061E08FE594E00E94030A0BE3A9
:102440001FE1C8010197F1F782E08093660440E044
:1024500066E08FE594E00E94030A40E062E08FE5C9
:1024600094E00E94030AC8010197F1F740E061E09F
:102470008FE594E00E94030AC8010197F1F788E014
:1024800080936A0460E08FE594E00E94CE081FB755
:10249000F8948091C302811127C0E0E9F0E08491B3
:1024A000E4EAF0E09491E82FF0E0EE0FFF1FE85926
:1024B000FF4FA591B491EC91E92321F461E08AE00A
:1024C0000E94EA0061E08AE00E9418018CB58061F8
:1024D0008CBD8CB580648CBD61E08DE00E941801DC
:1024E00061E08BE00E9418018091C3028F5F8093AE
:1024F000C3021FBF61E08091AF030E94180161E039
:102500008091AF030E94EA008091B0038F3F09F4ED
:10251000BCC160E00E9418018091B0030E94C1001C
:10252000892B09F0B2C161E08091B0030E941801CB
:1025300060E08091B0030E94EA0083E090E00197A0
:10254000F1F761E08091B0030E94EA0062E370E07D
:1025500080E090E00E94790140E064E281EA93E04B
:102560000E94D20340E066E281EA93E00E94D20337
:1025700046E268E481EA93E00E94D20340E864E521
:1025800081EA93E00E94D20349EA66E581EA93E09A
:102590000E94D20343E068E581EA93E00E94D203FF
:1025A00048EE6AE581EA93E00E94D20340E46AE2E1
:1025B00081EA93E00E94D2034DE362E281EA93E074
:1025C0000E94D20368E281EA93E00E94B403982F4C
:1025D0009370933039F0482F436068E281EA93E0CA
:1025E0000E94D20361E08091B1030E94180161E072
:1025F0008091B2030E9418016091B4038091B303EB
:102600000E94180160E08091B1030E94EA0060E03E
:102610008091B2030E94EA0068ECE62E62E0F62E9A
:1026200010E000E0C8010E948714F70181937F0148
:102630000F5F1F4F04301105A9F754ECE52E52E04F
:10264000F52E04E010E0C8010E948714F701819381
:102650007F010F5F1F4F08301105A9F739E5832E61
:1026600034E0932E66246394712C20E0422E20E007
:10267000522E8AE0D82E90E5292E8091B4039091B5
:10268000B503019749F07092B5036092B40361E01D
:102690008091B3030E94180161E08091B1030E9410
:1026A000EA0018E00FEB602F61708091B3030E9485
:1026B000EA0061E08091B2030E94EA0060E080914C
:1026C000B2030E94EA000695115069F78091B403A5
:1026D0009091B503892B49F01092B5031092B40381
:1026E00060E08091B3030E9418010E94C409982FF2
:1026F000929597708F70C82E9D9DC00C11240E94DA
:10270000C409982F929597708F70E82E9D9DE00CCC
:1027100011240E94C409982F929593708F70F82EFF
:102720009D9DF00C11240E94C409982F92959370DE
:102730008F70A82E9D9DA00C11240E94C40984FBBB
:10274000992790F98F70B82E9D9DB00C11240E948E
:10275000C409182F0E94C409982F92959770082FCA
:102760000F709D9D000D112460E08091B1030E94C7
:10277000EA001770312E10E00053184F1F923F925D
:102780001F92CF921F92EF921F92FF921F92AF92D1
:102790001F92BF921F930F9320E831E03F932F9336
:1027A000E3E5F4E0FF93EF930E94DE0A81EA93E011
:1027B0000E9483050FB6F894DEBF0FBECDBF8823FD
:1027C00099F181EA93E00E946D03882369F144E066
:1027D00050E064EA73E088EC92E00E940117892BD4
:1027E00009F06AC062EA71E086EB93E00E94510A48
:1027F00060EB71E086EB93E00E94510A80E00E945A
:102800001A0A1F92AF921F92BF921F930F9323EB4E
:1028100031E03F932F939F928F920E94DE0A0FB672
:10282000F894DEBF0FBECDBF29821A829E012D5FB4
:102830003F4F42E0BE016F5F7F4F81EA93E00E940D
:10284000EF03811110C0A12CC12CF12CE12C10E060
:1028500000E030E020E044E0BE016F5F7F4F81EA9E
:1028600093E00E94560468EE73E080E090E00E94DE
:1028700079014114510409F400CF0E941702882302
:1028800009F4F7CE0E940000F0CE4FE062E081EA4A
:1028900093E00E94D20313E062E370E080E090E0F6
:1028A0000E94790162E081EA93E00E94B40384FF10
:1028B00053CE115089F750CE44E050E064EA73E003
:1028C00084EC92E00E940117892B09F0ADCF62ECF5
:1028D00071E086EB93E00E94510A60EB71E086EBB9
:1028E00093E00E94510A81E00E941A0A1F923F92CF
:1028F0001F92CF921F92EF921F92FF9220ED31E034
:102900003F932F939F928F920E94DE0A88CFF9996E
:10291000FECF92BD81BDF89A992780B50895262FE4
:10292000F999FECF1FBA92BD81BD20BD0FB6F894B4
:10293000FA9AF99A0FBE01960895A1E21A2EAA1BDF
:10294000BB1BFD010DC0AA1FBB1FEE1FFF1FA2175F
:10295000B307E407F50720F0A21BB30BE40BF50B5C
:10296000661F771F881F991F1A9469F760957095E5
:10297000809590959B01AC01BD01CF010895505801
:10298000BB27AA270E94D7140C944A160E943C1613
:1029900038F00E94431620F039F49F3F19F426F4D2
:1029A0000C9439160EF4E095E7FB0C943316E92FDE
:1029B0000E945B1658F3BA176207730784079507DE
:1029C00020F079F4A6F50C947D160EF4E0950B2E0C
:1029D000BA2FA02D0B01B90190010C01CA01A00171
:1029E0001124FF27591B99F0593F50F4503E68F1CC
:1029F0001A16F040A22F232F342F4427585FF3CF0D
:102A0000469537952795A795F0405395C9F77EF4DD
:102A10001F16BA0B620B730B840BBAF09150A1F026
:102A2000FF0FBB1F661F771F881FC2F70EC0BA0FAC
:102A3000621F731F841F48F4879577956795B79534
:102A4000F7959E3F08F0B0CF9395880F08F099272F
:102A5000EE0F9795879508950E940F1608F481E070
:102A600008950E9445150C944A160E94431658F08A
:102A70000E943C1640F029F45F3F29F00C94331675
:102A800051110C947E160C9439160E945B1668F353
:102A90009923B1F3552391F3951B550BBB27AA2717
:102AA00062177307840738F09F5F5F4F220F331F51
:102AB000441FAA1FA9F335D00E2E3AF0E0E832D019
:102AC00091505040E695001CCAF72BD0FE2F29D01C
:102AD000660F771F881FBB1F261737074807AB07EE
:102AE000B0E809F0BB0B802DBF01FF2793585F4F63
:102AF0003AF09E3F510578F00C9433160C947E16F4
:102B00005F3FE4F3983ED4F3869577956795B79544
:102B1000F7959F5FC9F7880F911D9695879597F94F
:102B20000895E1E0660F771F881FBB1F62177307C8
:102B30008407BA0720F0621B730B840BBA0BEE1FDD
:102B400088F7E09508950E94631688F09F5798F0E3
:102B5000B92F9927B751B0F0E1F0660F771F881FA2
:102B6000991F1AF0BA95C9F714C0B13091F00E94BC
:102B70007D16B1E008950C947D16672F782F882775
:102B8000B85F39F0B93FCCF3869577956795B395E3
:102B9000D9F73EF490958095709561957F4F8F4F52
:102BA0009F4F0895E89409C097FB3EF49095809557
:102BB000709561957F4F8F4F9F4F9923A9F0F92F03
:102BC00096E9BB279395F695879577956795B79581
:102BD000F111F8CFFAF4BB0F11F460FF1BC06F5F67
:102BE0007F4F8F4F9F4F16C0882311F096E911C079
:102BF000772321F09EE8872F762F05C0662371F09A
:102C000096E8862F70E060E02AF09A95660F771FAD
:102C1000881FDAF7880F9695879597F90895990F89
:102C20000008550FAA0BE0E8FEEF16161706E80796
:102C3000F907C0F012161306E407F50798F0621BB7
:102C4000730B840B950B39F40A2661F0232B242B8C
:102C5000252B21F408950A2609F4A140A6958FEFAB
:102C6000811D811D089597F99F6780E870E060E0FD
:102C700008959FEF80EC089500240A941616170615
:102C800018060906089500240A941216130614065D
:102C900005060895092E0394000C11F4882352F0C0
:102CA000BB0F40F4BF2B11F460FF04C06F5F7F4F78
:102CB0008F4F9F4F089557FD9058440F551F59F05F
:102CC0005F3F71F04795880F97FB991F61F09F3F19
:102CD00079F087950895121613061406551FF2CF42
:102CE0004695F1DF08C0161617061806991FF1CF92
:102CF00086957105610508940895E894BB276627B9
:102D00007727CB0197F908950E940F1608F48FEFEB
:102D100008950E949C160C944A160E943C1638F0A6
:102D20000E94431620F0952311F00C9433160C9456
:102D3000391611240C947E160E945B1670F3959F31
:102D4000C1F3950F50E0551F629FF001729FBB27A2
:102D5000F00DB11D639FAA27F00DB11DAA1F649F3E
:102D60006627B00DA11D661F829F2227B00DA11DF1
:102D7000621F739FB00DA11D621F839FA00D611D77
:102D8000221F749F3327A00D611D231F849F600D98
:102D9000211D822F762F6A2F11249F5750409AF0C1
:102DA000F1F088234AF0EE0FFF1FBB1F661F771F4D
:102DB000881F91505040A9F79E3F510580F00C9418
:102DC00033160C947E165F3FE4F3983ED4F3869559
:102DD00077956795B795F795E7959F5FC1F7FE2BB8
:102DE000880F911D9695879597F908950E940F1663
:102DF000880B990B0895EE0FFF1F0590F491E02DBD
:102E00000994FB01DC0104C08D910190801921F42B
:102E100041505040C8F7881B990B0895F894FFCF94
:102E20000000400014005400000000005C0DAD01E3
:102E3000C109C009E60FF8FF0000111000000000F2
:102E40009E0700000000CC07AD01C109C0090000C9
:102E500000004D02AD01DA019A020B02E901FD0109
:102E60000000000060083308C109E2070508F20706
:102E7000E30700000000E60583056D030000000085
:102E80004B0AAD01C109C00900000000B509AD0140
:102E9000C109C0096E616E00696E66006F766600DA
:102EA000253034642D253032642D253032642025C0
:102EB0003032643A253032643A2530326420256459
:102EC0000A00746167312064657465637465640029
:102ED0000D0A00253034642D253032642D25303222
:102EE00064007461673220646574656374656400AE
:102EF000253032643A253032643A25303264202558
:022F000064006B
:00000001FF
