:100000000C9463000C948B000C948B000C944F0A9E
:100010000C944F0A0C944F0A0C948B000C94B90862
:100020000C948B000C948B000C948B000C94930913
:100030000C948B000C948B000C948B000C948B0014
:100040000C946F080C948B000C9461090C943B0980
:100050000C948B000C948B000C948B000C948B00F4
:100060000C94590A0C948B00000000002400270017
:100070002A000000000023002600290000000008DC
:10008000000201000003040700000000000000005F
:10009000010204081020408001020408102001021F
:1000A0000408102000000000250028002B00040494
:1000B0000404040404040202020202020303030310
:1000C00003030200740B11241FBECFEFD8E0DEBF84
:1000D000CDBF11E0A0E0B1E0EEEBF6E202C005908A
:1000E0000D92AC33B107D9F723E0ACE3B1E001C026
:1000F0001D92AA37B207E1F710E0C3E6D0E004C0D2
:100100002197FE010E942D12C236D107C9F70E9425
:10011000970C0C945D130C940000862FE091BA01AB
:10012000F091BB01309711F0BA0109940895862F20
:10013000E091B801F091B901309711F0BA0109943A
:100140000895862FE091B601F091B701309711F034
:10015000BA0109940895862FE091B401F091B50198
:10016000309711F0BA0109940895862FE091B201F9
:10017000F091B301309711F0BA0109940895862FD8
:10018000E091B001F091B101309711F0BA010994FA
:1001900008950895862F642FE091BC01F091BD0170
:1001A000309711F0A9010994089508958F929F92B4
:1001B000AF92BF92FF920F931F93CF93DF93F09074
:1001C00073032BE02F1508F44CC02091750308E54C
:1001D00012E0021B110927FD1395000F111F000FDC
:1001E000111F20917403C8E8D0E0C21BD10927FD7C
:1001F000D395CC0FDD1FCC0FDD1F4E010D2E000C53
:10020000AA08BB089801012E000C440B550B2819B5
:1002100039094A095B09DC010E94E81124EB30E04E
:1002200040E050E00E94BE11820E931EA41EB51E37
:100230008C169D062CF0E801801691060CF4E40162
:100240002297CC0FDD1F2FB7F8948F2D90E0FC0183
:10025000EE0FFF1FE80FF91FE35CFC4FD283C18351
:100260002FBFDF91CF911F910F91FF90BF90AF9063
:100270009F908F9008951F93CF93DF93182FEB01DA
:100280008091C2029091C3026817790760F480914F
:10029000C0029091C102C80FD91F188380E0DF917E
:1002A000CF911F910895E091EF02F091F002309705
:1002B00011F481E0F4CF81E08093BF028091DB02F2
:1002C0009091DC0209958091C2029091C302C817F7
:1002D000D90778F7DCCFCF93DF93EC01FB0130E057
:1002E00020E0C901880F991F8C179D0778F4408181
:1002F000DB014D93BD0111979181979599279795B2
:10030000942B9C932F5F3F4F3296EBCFC901DF9127
:10031000CF910895CF93DF93FC01A081B181109715
:1003200001F1EC01ED91FC9111970190F081E02D2C
:1003300069EFCD01099588819981DC01ED91FC91EE
:100340000190F081E02D62E0099588819981DC01BE
:10035000ED91FC910190F081E02D65E0DF91CF916E
:100360000994DF91CF910895833081F028F4813092
:1003700099F08230A9F008958730A9F08830C9F04B
:100380008430B1F4809180008F7D03C08091800023
:100390008F7780938000089584B58F7784BD08950A
:1003A00084B58F7DFBCF8091B0008F778093B000B4
:1003B00008958091B0008F7DF9CFCF93DF93282FE0
:1003C00030E0F901E458FF4F8491F901E057FF4F05
:1003D000D491F901E255FF4FC491CC23A1F08111D2
:1003E0000E94B401EC2FF0E0EE0FFF1FEE58FF4F1C
:1003F000A591B491EC91ED2381E090E009F480E0C7
:10040000DF91CF91089580E090E0FACF1F93CF93D2
:10041000DF93282F30E0F901E458FF4F8491F90170
:10042000E057FF4FD491F901E255FF4FC491CC231F
:10043000A9F0162F81110E94B401EC2FF0E0EE0F0D
:10044000FF1FEC55FF4FA591B4918FB7F894EC9135
:10045000111108C0D095DE23DC938FBFDF91CF91BF
:100460001F910895DE2BF8CFCF93DF9390E0FC012E
:10047000E057FF4F249182559F4FFC0184918823C0
:10048000C9F090E0880F991FFC01E859FF4FA59132
:10049000B491FC01EC55FF4FC591D49161110DC091
:1004A0009FB7F8948C91209582238C938881282380
:1004B00028839FBFDF91CF910895623051F49FB799
:1004C000F8943C91822F809583238C93E8812E2B86
:1004D000EFCF8FB7F894EC912E2B2C938FBFEACFF0
:1004E0004F925F926F927F928F929F92AF92BF9244
:1004F000CF92DF92EF92FF920F931F93CF93DF93F0
:1005000000D000D01F92CDB7DEB78C0149835A834B
:100510006B837C83809100018C30C9F08F3F09F49C
:100520007DC00F900F900F900F900F90DF91CF91A3
:100530001F910F91FF90EF90DF90CF90BF90AF9001
:100540009F908F907F906F905F904F900895E2EC16
:10055000F0E084918D8387FDE4CF61E08CE00E9420
:1005600034028D81882321F09D81923009F044C1AD
:100570004801B12CA12C60E072E18AE790E0A5016E
:1005800098010E94BE1129013A017A01690181E0B6
:10059000C81AD108E108F1089FEFC916D104E10497
:1005A000F10409F00CF4F7C060E472E48FE090E02D
:1005B000A50198010E94BE1169017A0181E0C81A63
:1005C000D108E108F1089D81923009F098C08FEFC1
:1005D000C816D104E104F10409F00CF4CAC160E9C1
:1005E00070ED83E090E0A50198010E94BE116901C1
:1005F0007A0191E0C91AD108E108F1088FEFC81615
:10060000D104E104F10411F00CF065C183E0909194
:10061000B100987F892B8093B100C5C08CE0809396
:100620000001E2ECF0E094919D839F3F09F479CFC3
:10063000913029F158F0923009F43FC09D8197FD27
:1006400070CF61E08CE00E9434028ECF14BC15BCE8
:1006500084B5826084BD85B5816085BDEAEBF0E03C
:10066000E491F0E0EE0FFF1FEC55FF4F8591949160
:10067000ECE9F0E0E491E093D3011D826ECF10929B
:1006800080001092810080918100886080938100B9
:1006900080918100816080938100EAEBF0E0E49139
:1006A000F0E0EE0FFF1FEC55FF4F85919491ECE9C0
:1006B000F0E0E491E093D20150CF1092B00010929C
:1006C000B1008091B00082608093B0008091B10051
:1006D00081608093B100EAEBF0E0E491F0E0EE0F8E
:1006E000FF1FEC55FF4F859194919093D10180931A
:1006F000D001ECE9F0E0E491E093CF012ECF9FEF41
:10070000C916D104E104F10409F00CF473C068E4E3
:1007100078EE81E090E0A50198010E94BE11690188
:100720007A0181E0C81AD108E108F1089D81992376
:1007300009F4EAC09FEFC916D104E104F10409F0FD
:100740000CF4E0C0EAC064E274EF80E090E0A50140
:1007500094010E94BE1169017A0181E0C81AD10892
:10076000E108F10885E09FEFC916D104E104F10426
:1007700009F008F44CCF62E17AE780E090E0A5014F
:1007800094010E94BE1169017A0181E0C81AD10862
:10079000E108F108D5C081E09D81911138CF95B570
:1007A000987F892B85BDD801AA0FBB1F29813A816B
:1007B0004B815C810E94DD1128EE33E040E050E087
:1007C0000E94F0118D81813009F44AC0823009F411
:1007D00059C08111A6CEC7BC2093DC013093DD0146
:1007E0004093DE015093DF0180916E008260809320
:1007F0006E0097CE82E0D0CFB12CA12C60E072E1E8
:100800008AE790E0A50198010E94BE1169017A0172
:1008100081E0C81AD108E108F108C114D10491E0BF
:10082000E906F10464F491E08D81813009F0BBCFD9
:1008300080918100887F892B80938100B4CF68E408
:1008400078EE81E090E0A50198010E94BE11690157
:100850007A0181E0C81AD108E108F10893E0E4CFF9
:10086000D0928900C09288002093D8013093D9019A
:100870004093DA015093DB0180916F008260809396
:100880006F004FCEC092B3002093D4013093D501B6
:100890004093D6015093D70180917000826080937D
:1008A00070003FCE84E09FEFC916D104E104F1044B
:1008B00009F008F474CF730162019AE0F594E794AB
:1008C000D794C7949A95D1F781E0C81AD108E10866
:1008D000F10885E064CF68E478EE81E090E0A5015E
:1008E00098010E94BE1169017A0191E0C91AD108EC
:1008F000E108F1088FEFC816D104E104F10411F00A
:100900000CF021CF84E083CE83E09FEFC916D104A1
:10091000E104F10409F00CF442CF62E17AE780E0EF
:1009200090E0A50194010E94BE1169017A0181E065
:10093000C81AD108E108F1089D81992309F4B2CFC2
:1009400086E09FEFC916D104E104F10409F008F430
:100950005ECE730162012AE0F594E794D794C794C0
:100960002A95D1F781E0C81AD108E108F10887E09B
:100970004ECE82E04CCE3FB7F8948091CB0190915F
:10098000CC01A091CD01B091CE0126B5A89B05C0A8
:100990002F3F19F00196A11DB11D3FBFBA2FA92FFE
:1009A000982F8827BC01CD01620F711D811D911DFB
:1009B00042E0660F771F881F991F4A95D1F7089567
:1009C0008F929F92AF92BF92CF92DF92EF92FF925F
:1009D0006B017C010E94BB044B015C01C114D1047A
:1009E000E104F104B9F00E94BB04681979098A098D
:1009F0009B09683E73408105910580F321E0C21A8E
:100A0000D108E108F10888EE880E83E0981EA11C49
:100A1000B11CE4CFFF90EF90DF90CF90BF90AF90EC
:100A20009F908F9008950C9434020C9406020097C6
:100A300021F0805C9F4F0C948A010895AF92BF9281
:100A4000CF92DF92EF92FF920F931F93CF93DF939A
:100A50006C017B018B01040F151FEB015E01AE18C9
:100A6000BF08C017D10759F06991D601ED91FC91EB
:100A70000190F081E02DC6010995892B79F7C50118
:100A8000DF91CF911F910F91FF90EF90DF90CF906A
:100A9000BF90AF900895FC01538D448D252F30E019
:100AA000842F90E0821B930B541710F0CF9608957B
:100AB00001970895FC01918D828D981761F0A28DA8
:100AC000AE0FBF2FB11D5D968C91928D9F5F9F736E
:100AD000928F90E008958FEF9FEF0895FC01918D24
:100AE000828D981731F0828DE80FF11D858D90E091
:100AF00008958FEF9FEF0895FC01918D228D892F2E
:100B000090E0805C9F4F821B91098F739927089515
:100B100080EE91E00E947C0521E0892B09F420E021
:100B2000822F089580E090E0892B29F00E948805AB
:100B300081110C9400000895FC01A48DA80FB92F19
:100B4000B11DA35ABF4F2C91848D90E001968F73F5
:100B50009927848FA689B7892C93A089B1898C9114
:100B6000837080648C93938D848D981306C0028863
:100B7000F389E02D80818F7D80830895EF92FF922D
:100B80000F931F93CF93DF93EC0181E0888F9B8DB0
:100B90008C8D98131AC0E889F989808185FF15C06A
:100BA0009FB7F894EE89FF896083E889F98980818D
:100BB0008370806480839FBF81E090E0DF91CF915C
:100BC0001F910F91FF90EF900895F62E0B8D10E07E
:100BD0000F5F1F4F0F731127E02E8C8D8E110CC0ED
:100BE0000FB607FCFACFE889F989808185FFF5CF38
:100BF000CE010E949C05F1CFEB8DEC0FFD2FF11D76
:100C0000E35AFF4FF0829FB7F8940B8FEA89FB8974
:100C100080818062CFCFCF93DF93EC01888D8823D2
:100C2000B9F0AA89BB89E889F9898C9185FD03C04F
:100C3000808186FD0DC00FB607FCF7CF8C9185FF34
:100C4000F2CF808185FFEDCFCE010E949C05E9CFD8
:100C5000DF91CF910895CF92DF92EF92FF920F93A1
:100C60001F93CF93DF93FC01E058FF4FC080CC204F
:100C700009F46CC0EC01C05CDF4FA881B98110970A
:100C800009F464C0FC01EF57FF4FE080F180F701E9
:100C900011810081ED91FC9111970190F081E02D7F
:100CA00060EFCD01099588819981DC01ED91FC917E
:100CB0000190F081E02D69E7099588819981DC0137
:100CC000ED91FC910190F081E02D602F09958881D4
:100CD0009981DC01ED91FC910190F081E02D612F73
:100CE00009958701EC2DE250FF0B6F0188819981F6
:100CF000DC01ED91FC910190F081E02D98012E191D
:100D00003F092C153D05C0F4D80112966C916F7700
:100D1000099588819981F801628170E0660F672FDB
:100D2000661F770BDC01ED91FC910190F081E02DC5
:100D300009950F5F1F4FDACF67EFDF91CF911F91BA
:100D40000F91FF90EF90DF90CF900994DF91CF91BA
:100D50001F910F91FF90EF90DF90CF900895009733
:100D600011F00C942B06089508958FEF9FEF0895CE
:100D70008FEF9FEF08958091AC0190E09195819560
:100D80009109089590E080E0089520916201260F76
:100D90003327331F21323105ECF420918601FC0109
:100DA00090E080E0243069F082E00895A091620133
:100DB0002191AC014E5B5E4FA40FB52FB11D2C935A
:100DC0000196861798F380916201680F6093620123
:100DD00080E0089581E00895CF93DF93CB01EA018D
:100DE000642F0E94C506CE01DF91CF910895CF9365
:100DF000DF931F92CDB7DEB7698361E0CE01019624
:100E00000E94C50681E090E00F90DF91CF91089598
:100E10000895813139F0823111F0803141F410921E
:100E20006C0303C091E090936C0380937203089568
:100E3000AF92BF92CF92DF92FF920F931F93CF9307
:100E4000DF93EC018889803161F0823189F1DF9193
:100E5000CF911F910F91FF90DF90CF90BF90AF90F7
:100E600008958B850E94DD01F82E8E01055F1F4FCE
:100E70006E018FE0C80ED11C5801F80181810E94DB
:100E8000DD010F5F1F4F682FF50180810E94060270
:100E90000C151D0589F76F2D8F85DF91CF911F915F
:100EA0000F91FF90DF90CF90BF90AF900C9406020F
:100EB0008F850E94DD01F82E8E016E01F4E0CF1ABD
:100EC000D108F80186850E94DD01682FF801878529
:100ED0000E940602015011090C151D0591F76F2D96
:100EE0008B85DBCFCF93DF93C6E1D1E048E552E0BD
:100EF00060E070E0899199910E94700268EC70E066
:100F000080E090E00E94E00481E0CE31D80771F7E4
:100F1000DF91CF910895CF93DF938AEA90E00E940A
:100F2000D600C0E1D1E048EE53E060E070E0899186
:100F300099910E94700268EE73E080E090E00E9458
:100F4000E00481E0C631D80771F760EA7FE080E015
:100F500090E00E94E0048091C2019091C3019093BF
:100F6000C5018093C401DF91CF910895FC014683B0
:100F70005783608771872FB7F8944091C7015091CC
:100F8000C8016091C9017091CA012FBF4283538388
:100F9000648375830895EF92FF920F931F93CF930D
:100FA000DF93EC010E94B6078E01055F1F4F7E01A3
:100FB00083E1E80EF11C61E0F80181918F010E944C
:100FC00034020E151F05B9F761E08E850E940602F6
:100FD00061E088890E94060261E08989DF91CF91F2
:100FE0001F910F91FF90EF900C9406020E945813EE
:100FF0001F93CF93DF9385ED8093BC0080913E01DA
:1010000090913F01A0914001B09141010796A11D2F
:10101000B11D23E0B695A795979587952A95D1F7A9
:101020002091BC0024FD03C01092860152C0409163
:101030003E0150913F016091400170914101452B6B
:10104000462B472B69F30097A105B10541F02AE231
:101050002A95F1F700C00197A109B109E1CF80916C
:101060003D01C1E0C0933C01882399F1D091B800C3
:101070001091BA008091BC008A7B8093BC0060E034
:1010800082E10E94060260E083E10E940602109263
:101090008601C09388011092870161E082E10E947D
:1010A000060261E083E10E9406028091B9008E7F12
:1010B0008093B9008091B9008D7F8093B90088E456
:1010C0008093B80085E48093BC001093BA00D0935D
:1010D000B800DF91CF911F9108950C94CF121F9209
:1010E0000F920FB60F9211242F933F938F939F93DC
:1010F000AF93BF938091C7019091C801A091C9019E
:10110000B091CA013091C60123E0230F2D3758F565
:101110000196A11DB11D2093C6018093C701909334
:10112000C801A093C901B093CA018091CB019091ED
:10113000CC01A091CD01B091CE010196A11DB11DB0
:101140008093CB019093CC01A093CD01B093CE01BD
:10115000BF91AF919F918F913F912F910F900FBEB3
:101160000F901F90189526E8230F0296A11DB11D20
:10117000D2CF1F920F920FB60F9211242F933F934D
:101180004F935F936F937F938F939F93AF93BF938F
:10119000EF93FF938091D4019091D501A091D60156
:1011A000B091D701892B8A2B8B2BD1F19091CF0154
:1011B000E091D001F091D1018081892780838091D5
:1011C000D4019091D501A091D601B091D701181604
:1011D00019061A061B069CF48091D4019091D50142
:1011E000A091D601B091D7010197A109B1098093CF
:1011F000D4019093D501A093D601B093D701FF916C
:10120000EF91BF91AF919F918F917F916F915F917E
:101210004F913F912F910F900FBE0F901F901895F7
:1012200080910001E2ECF0E0E4919FEF90930001E7
:10123000E13051F030F0E23069F060E00E940602E7
:10124000DECF10926E00F9CF90916F009D7F90934A
:101250006F00F3CF909170009D7F9093700091E0AC
:101260009093B0009091B100987F94609093B100FA
:101270001092B300E2CF1F920F920FB60F9211247B
:101280002F933F934F935F936F937F938F939F938E
:10129000AF93BF93EF93FF9380EE91E00E949C0584
:1012A000FF91EF91BF91AF919F918F917F916F913E
:1012B0005F914F913F912F910F900FBE0F901F9014
:1012C00018951F920F920FB60F9211242F938F93A0
:1012D0009F93EF93FF93E091F001F091F1018081F2
:1012E000E091F601F091F70182FD1BC090818091A1
:1012F000F9018F5F8F732091FA01821741F0E0911D
:10130000F901F0E0E052FE4F958F8093F901FF91D3
:10131000EF919F918F912F910F900FBE0F901F9083
:1013200018958081F4CF1F920F920FB60F9211245F
:101330002F933F934F935F936F937F938F939F93DD
:10134000AF93BF93CF93DF93EF93FF938091AF0160
:10135000C0916103D0E087FF24C0109285001092F5
:1013600084008091AF018F5F8093AF018091AF01C6
:10137000082E000C990B8C179D0724F48091AF0167
:101380008C30C4F180918400909185000496803463
:101390009C4908F47AC0809184009091850004965D
:1013A00076C08091AF01082E000C990B8C179D0719
:1013B000C4F6E091AF018E2FEE0F990BFC01EE0FFA
:1013C000FF1FE80FF91FE35CFC4F808186FFC9CF48
:1013D000E091AF018E2FEE0F990BFC01EE0FFF1F76
:1013E000E80FF91FE35CFC4F808160E08F730E947F
:1013F0000602B7CF2091840030918500E091AF01C3
:101400008E2FEE0F990BFC01EE0FFF1FE80FF91F57
:10141000E35CFC4F81819281820F931F909389003E
:1014200080938800E091AF018E2FEE0F990BFC01A5
:10143000EE0FFF1FE80FF91FE35CFC4F808186FF72
:1014400011C0E091AF018E2FEE0F990BFC01EE0F52
:10145000FF1FE80FF91FE35CFC4F808161E08F7391
:101460000E940602FF91EF91DF91CF91BF91AF9162
:101470009F918F917F916F915F914F913F912F91AC
:101480000F900FBE0F901F90189580E49CE99093E9
:101490008900809388008FEF8093AF01E3CF1F9284
:1014A0000F920FB60F9211240F900FBE0F901F9046
:1014B00018951F920F920FB60F9211242F933F93FE
:1014C0004F935F936F937F938F939F93AF93BF934C
:1014D000EF93FF938091B900887F803609F44AC06A
:1014E000F0F5883209F4A5C018F5803109F499C0E7
:1014F000B8F4882309F4F5C0883009F492C0FF914C
:10150000EF91BF91AF919F918F917F916F915F917B
:101510004F913F912F910F900FBE0F901F901895F4
:10152000883109F486C0803251F78093850114C058
:10153000803409F49BC040F48033B9F38833F9F662
:101540008093850185ECAEC0803509F483C0883571
:1015500009F494C0883499F60E94F807D0CF8839EE
:1015600009F48AC038F5883729F050F4883611F02C
:10157000803729F683E0809386011092840155C05C
:10158000883809F479C0803919F0803809F0B7CF6C
:1015900080918401803208F06FC0E091840181E085
:1015A0008E0F809384018091BB00F0E0EC59FE4FD8
:1015B00080833BC0803B39F0D0F4803A09F477C097
:1015C000883A09F09CCF84E08093860110926301F1
:1015D00010926201F0E0E0E00995809162018111D2
:1015E0000FC081E0809362011092420109C0803CEB
:1015F00009F4A8CF883C09F4A5CF883B09F07FCF38
:10160000E091630181E08E0F80936301F0E0EE5B77
:10161000FE4F80818093BB009091630180916201B5
:1016200029C08091AB018093BB0085EC8093BC0006
:1016300066CF9091AA018091A901981758F5E09181
:10164000AA0181E08E0F8093AA01F0E0E757FE4FD8
:101650008081E9CFE091AA0181E08E0F8093AA01F9
:101660008091BB00F0E0E757FE4F80839091AA0184
:101670008091A9019817C8F285E8D8CFE091AA0116
:1016800081E08E0F8093AA018091BB00F0E0E757C4
:10169000FE4F80838091880181115ECF81E080932D
:1016A000870184EA8093BC001092860128CF85ECE4
:1016B0008093BC001092860180918401803230F4C6
:1016C000E0918401F0E0EC59FE4F108260918401BA
:1016D00070E084E691E0F0E0E0E00995109284018A
:1016E0000ECF1092850138CF1092E3011092E201E3
:1016F00088EE93E0A0E0B0E08093E4019093E501F0
:10170000A093E601B093E70182E291E09093E101BA
:101710008093E00185EC90E09093ED018093EC01E3
:1017200084EC90E09093EF018093EE0180EC90E0E8
:101730009093F1018093F00181EC90E09093F3019C
:101740008093F20182EC90E09093F5018093F40194
:1017500086EC90E09093F7018093F6011092F901E6
:101760001092FA011092FB011092FC018DE792E0B9
:101770001092BE021092BD029093C1028093C002EB
:1017800020E430E03093C3022093C2021092C402DE
:101790001092C5021092C7021092C6021092C8029F
:1017A0001092CA021092C9021092CC021092CB027F
:1017B0001092CE021092CD021092D0021092CF025F
:1017C0001092D2021092D1021092D4021092D3023F
:1017D0001092D6021092D5021092DC021092DB0217
:1017E0001092DE021092DD021092E0021092DF02EF
:1017F0001092E2021092E1021092F0021092EF02B7
:101800001092BF021092FD021092FF021092FE028F
:1018100010923C032DE830E03093E4022093E30281
:1018200027E930E03093E6022093E50221EA30E038
:101830003093E8022093E7022BEA30E03093EA028B
:101840002093E90225EB30E03093EC022093EB0289
:101850002FEB30E03093EE022093ED0229EC30E0E4
:101860003093F2022093F1022AEC30E03093F4023C
:101870002093F3022FEA36E03093F6022093F5022C
:101880009093D8028093D70227E135E03093F80295
:101890002093F7029093DA028093D90285ED90E0CD
:1018A0009093FA028093F902809161038C30D8F50D
:1018B00091E0980F909361038093730390E0FC0193
:1018C000EE0FFF1FE80FF91FE35CFC4F88EB9BE076
:1018D0009283818310926C031092640310926503CB
:1018E000109266031092670384E690E0A0E0B0E0F7
:1018F0008093680390936903A0936A03B0936B038A
:1019000084E391E0909363038093620385E0EBE0CE
:10191000F1E0ADE6B3E001900D928A95E1F781E147
:101920008093720308958FEF80937303D3CF7894DD
:1019300084B5826084BD84B5816084BD85B58260D4
:1019400085BD85B5816085BD80916E008160809385
:101950006E001092810080918100826080938100EE
:1019600080918100816080938100809180008160FE
:10197000809380008091B10084608093B100809159
:10198000B00081608093B00080917A008460809381
:101990007A0080917A00826080937A0080917A0048
:1019A000816080937A0080917A00806880937A00C9
:1019B0001092C100809173038C3008F051C061E037
:1019C0008DE00E94340280917303282F30E0F901EA
:1019D000EE0FFF1FE20FF31FE35CFC4F9081907C42
:1019E0009D60908310927403109275032CE0622F17
:1019F0000E942112829FB001112430E020E0AB014F
:101A0000420F531FFA01EE0FFF1FE40FF51FE35CB7
:101A1000FC4F908196FD16C02F5F3F4F2C30310553
:101A200071F781110FC01092800082E080938100D5
:101A30001092850010928400B19A80916F008260AC
:101A400080936F00E09173038E2F90E0FC01EE0F06
:101A5000FF1FE80FF91FE35CFC4F808180648083E7
:101A600080E480937C0080917A00806480937A0087
:101A700080917A0086FDFCCF6091780070917900AA
:101A8000072E000C880B990B6115710581059105D6
:101A900011F00E94B51162E082E00E94340262E01F
:101AA00084E00E94340262E086E00E94340262E038
:101AB00088E00E94340262E08AE00E94340261E021
:101AC00083E00E94340261E085E00E94340261E01C
:101AD00087E00E94340261E089E00E94340261E004
:101AE0008BE00E94340261E08CE00E94340210928C
:101AF000C3011092C20181E090E09093BF018093F6
:101B0000BE011092C5011092C401E091F001F09164
:101B1000F10182E08083E091EC01F091ED0110820F
:101B2000E091EE01F091EF0180E180831092F801E5
:101B3000E091F401F091F50186E08083E091F201FB
:101B4000F091F301808180618083E091F201F09156
:101B5000F301808188608083E091F201F091F301CC
:101B6000808180688083E091F201F091F3018081AF
:101B70008F7D808380913C0381114FC061E08DE0B7
:101B80000E94340262ED70E080E090E00E94E00488
:101B900061E08DE00E94060268E270E080E090E083
:101BA0000E94E00460E08DE00E94060262ED70E0B9
:101BB00080E090E00E94E00461E08DE00E94060277
:101BC00068E270E080E090E00E94E00460E08DE078
:101BD0000E9406026AEF70E080E090E00E94E0045C
:101BE000C5E062ED70E080E090E00E94E00461E01A
:101BF0008DE00E94060268E270E080E090E00E94C2
:101C0000E00460E08DE00E940602C15051F76DE7EC
:101C100070E080E090E00E94E00480EE91E090931C
:101C2000FC028093FB029093BE028093BD028DEB79
:101C300092E00E948A018DE792E00E942B0648EC18
:101C400050E060E070E082E693E00E94CB0781E024
:101C500080936C0383E195E09093B3018093B2018C
:101C600085E195E09093B1018093B00189E097E020
:101C70009093BD018093BC0185E0882E912CA12C0E
:101C8000B12CC0E0D0E0DD24D39402E010E0EE24DB
:101C9000E394F12C2091C4013091C5018091C201DF
:101CA0009091C3012817390731F58CE390E00E9429
:101CB000D6000E946611A50194010E94BE116F5FBB
:101CC0007F4F8F4F9F4F7093C1016093C00161E0C0
:101CD00083E00E94060261E085E00E94060261E066
:101CE00087E00E94060261E089E00E94060261E04E
:101CF0008BE00E9406028091BE019091BF019093FB
:101D0000C5018093C401892BC9F082E00E94DD01E6
:101D1000892B09F060C060E083E00E94060264E65F
:101D200070E080E090E00E94E0048091C00190911A
:101D3000C101019709F065C00E948B078091FB02E9
:101D40009091FC02DC01ED91FC910084F185E02D85
:101D50000995892B09F42DC28091FB029091FC0218
:101D6000DC01ED91FC910284F385E02D09959C0145
:101D70008F3F980719F3982F8091C802882309F4A0
:101D8000F1C0973F09F0DDC01092C802A091C002D7
:101D9000B091C1026C91613709F496C0693709F0BE
:101DA000BAC0E091F502F091F602309739F28091D5
:101DB000C9029091CA028330910508F069C030E0F1
:101DC00020E050E040E070E060E08091D702909128
:101DD000D8020995B3CF84E00E94DD01892BA1F4DC
:101DE00060E085E00E94060264E670E080E090E03A
:101DF0000E94E0048091C0019091C101029709F412
:101E00009BCF0E9472079ACF86E00E94DD01892B4A
:101E100089F460E087E00E94060264E670E080E0FA
:101E200090E00E94E0048091C0019091C10103976D
:101E300041F782CF88E00E94DD01892B89F460E0C0
:101E400089E00E94060264E670E080E090E00E9473
:101E5000E0048091C0019091C101049791F66CCF8C
:101E60008AE00E94DD01892B09F068CF60E08BE0F9
:101E70000E94060264E670E080E090E00E94E004C8
:101E80008091C0019091C101059709F0BACF54CF5C
:101E9000BD016D5F7F4F03970E946B01BC016D5FB9
:101EA0007F4F80E00E943B01E091C002F091C102AF
:101EB0009F012D5F3F4F428150E0618170E0E091D2
:101EC000F502F091F60281CF8091F1029091F20239
:101ED000892B09F433CFBD016F5F7F4F8091C90219
:101EE0009091CA0201970E946B01BC016F5F7F4F06
:101EF00080E00E943B016091C0027091C1026F5F5F
:101F00007F4FE091F102F091F2028091DD02909119
:101F1000DE02099513CFE091F302F091F4023097BD
:101F200009F40CCF9D012F5F3F4F4091C9025091A2
:101F3000CA02415051098091DF029091E002099557
:101F4000FDCE6091C9027091CA02822F0E943B01AE
:101F50008091C9029091CA0201969093CA0280931F
:101F6000C902ECCE6091C6027091C702611571057D
:101F700009F4B1C027FDAFC0615071097093C70269
:101F80006093C602822F0E943B018091C60290910D
:101F9000C702892B09F0D2CE8091C402882309F4AC
:101FA000CDCE803D09F483C040F4803949F1803CB6
:101FB00009F469C01092C402C1CE843FE1F1853FAB
:101FC00009F44DC0803EB1F7E091E302F091E402E4
:101FD000309781F3A091C002B091C1024C9120E8EA
:101FE000429FC001112411964C91480F592F511D49
:101FF0006091C5028091CB029091CC020995DACF15
:10200000E091E502F091E6023097A1F2A091C002C2
:10201000B091C1024C9120E8429FC0011124119659
:102020004C91480F592F511D6091C5028091CD02EE
:102030009091CE02E3CFE091EB02F091EC02309769
:1020400009F4B8CFA091C002B091C1024C9150E008
:1020500011966C918091D3029091D402CFCFE091F0
:10206000ED02F091EE02309709F4A4CFA091C002E6
:10207000B091C1024C9150E011966C918091D502C3
:102080009091D602BBCFE091E702F091E802309741
:1020900009F490CFA091C002B091C1024C9150E0E0
:1020A0006091C5028091CF029091D002A7CFE091BC
:1020B000E902F091EA02309709F47CCFA091C002C6
:1020C000B091C1024C9150E06091C5028091D10263
:1020D0009091D20293CF903F30F4822F8F708093F3
:1020E000C502922F907F903FF1F190F4903CB1F1B6
:1020F00050F4903909F022CE1093C7020093C60223
:102100009093C4021BCE903D49F1903EA9F316CEA8
:10211000993F09F442C028F48CE0890F823060F3C3
:102120000DCE9F3F09F00ACE1092C7021092C60250
:102130001092C4021092C50290E080E02091C20289
:102140003091C30282179307A8F4E091C002F09186
:10215000C102E80FF91F10820196F0CFF092C7027A
:10216000E092C602CDCFD092C8021092CA0210925D
:10217000C902E4CD1092C8021092CA021092C9029C
:10218000E091F902F091FA028091E1029091E2026D
:10219000309709F4D3CD0995D1CDE091F702F091B4
:1021A000F802309709F4CACD8091D9029091DA02F1
:1021B000F2CF2FB7F8948091C7019091C801A091F8
:1021C000C901B091CA012FBF4091640350916503CA
:1021D00060916603709167032C013D01441A550A12
:1021E000660A770A409168035091690360916A0317
:1021F00070916B03441655066606770680F02091B1
:102200006C0321110CC08093640390936503A09329
:102210006603B093670382E693E00E941807209755
:1022200009F438CD0E948805882309F433CD0E9433
:10223000000030CD8F929F92AF92BF92CF92DF92EB
:10224000EF92FF92CF93DF93EC01688179818A81CD
:102250009B81611571058105910521F464E279ED99
:102260008BE597E02DE133EF41E050E00E94BE1195
:1022700049015A019B01AC01A7EAB1E40E94DD11BA
:102280006B017C01ACEEB4EFA50194010E94EB114F
:10229000C60ED71EE81EF91EF7FE06C081E0C81A5A
:1022A000D108E10880E8F80AC882D982EA82FB8274
:1022B000C701B6019F77DF91CF91FF90EF90DF903C
:1022C000CF90BF90AF909F908F9008958F929F92E4
:1022D000AF92BF92CF92DF92EF92FF926091010195
:1022E00070910201809103019091040161157105C3
:1022F0008105910521F464E279ED8BE597E02DE10C
:1023000033EF41E050E00E94BE1149015A019B01A8
:10231000AC01A7EAB1E40E94DD116B017C01ACEED7
:10232000B4EFA50194010E94EB11C60ED71EE81E62
:10233000F91EF7FE06C081E0C81AD108E10880E85E
:10234000F80AC0920101D0920201E0920301F092DA
:102350000401C701B6019F77FF90EF90DF90CF9007
:10236000BF90AF909F908F900895609301017093FC
:10237000020180930301909304010895052E97FBB9
:102380001EF400940E94D51157FD07D00E94F01151
:1023900007FC03D04EF40C94D51150954095309520
:1023A00021953F4F4F4F5F4F0895909580957095C1
:1023B00061957F4F8F4F9F4F08950E941212A59FE6
:1023C000900DB49F900DA49F800D911D1124089530
:1023D000B7FF0C94DD110E94DD11821B930B089551
:1023E000A1E21A2EAA1BBB1BFD010DC0AA1FBB1F19
:1023F000EE1FFF1FA217B307E407F50720F0A21B8B
:10240000B30BE40BF50B661F771F881F991F1A94F7
:1024100069F760957095809590959B01AC01BD0121
:10242000CF010895A29FB001B39FC001A39F700D7B
:10243000811D1124911DB29F700D811D1124911DCC
:102440000895991B79E004C0991F961708F0961B10
:10245000881F7A95C9F780950895EE0FFF1F0590A4
:10246000F491E02D09940F931F93CF93DF93823063
:10247000910510F482E090E0E0917803F091790307
:1024800030E020E0B0E0A0E0309799F4211531056C
:1024900009F44AC0281B390B24303105D8F58A814C
:1024A0009B816115710589F1FB0193838283FE0194
:1024B00011C0408151810281138148175907E0F012
:1024C0004817590799F4109761F012960C931297D8
:1024D00013961C933296CF01DF91CF911F910F91EC
:1024E00008950093780310937903F4CF21153105F3
:1024F00051F04217530738F0A901DB019A01BD01E1
:10250000DF01F801C1CFEF01F9CF909379038093F8
:102510007803CDCFFE01E20FF31F819391932250F8
:10252000310939832883D7CF2091760330917703FF
:10253000232B41F420910701309108013093770358
:102540002093760320910501309106012115310574
:1025500041F42DB73EB74091090150910A01241B67
:10256000350BE0917603F0917703E217F307A0F4BF
:102570002E1B3F0B2817390778F0AC014E5F5F4FD9
:102580002417350748F04E0F5F1F50937703409391
:102590007603819391939FCFF0E0E0E09CCFCF93BF
:1025A000DF930097E9F0FC01329713821282A09129
:1025B0007803B0917903ED0130E020E01097A1F4A9
:1025C00020813181820F931F209176033091770310
:1025D0002817390709F061C0F0937703E093760379
:1025E000DF91CF910895EA01CE17DF07E8F54A8120
:1025F0005B819E0141155105B1F7E901FB83EA8337
:1026000049915991C40FD51FEC17FD0761F48081E2
:1026100091810296840F951FE901998388838281B5
:1026200093819B838A83F0E0E0E012968D919C91E8
:1026300013970097B9F52D913C911197CD01029612
:10264000820F931F20917603309177032817390763
:1026500039F6309751F51092790310927803B093C0
:102660007703A0937603BCCFD383C283408151818B
:10267000840F951FC817D90761F44E5F5F4F88819B
:102680009981480F591F518340838A819B8193838D
:1026900082832115310509F0B0CFF0937903E093DF
:1026A00078039ECFFD01DC01C0CF13821282D7CF09
:0E26B00081E090E0F8940C945D13F894FFCF55
:1026BE00FF0100000000007A038000030507090BEC
:1026CE0017041704170406014A0188010B020000C3
:1026DE000000BE051E054B050B067C055A056E0552
:0C26EE0000000000CB0708076D0818076B
:00000001FF
